{"abi":[{"anonymous":false,"inputs":[{"indexed":true,"internalType":"address","name":"_from","type":"address"},{"indexed":true,"internalType":"uint256","name":"_ballotId","type":"uint256"},{"indexed":true,"internalType":"uint256","name":"_candidateId","type":"uint256"}],"name":"Vote","type":"event"},{"inputs":[{"internalType":"string","name":"_name","type":"string"},{"internalType":"uint256","name":"ballotId","type":"uint256"}],"name":"addCandidate","outputs":[],"stateMutability":"nonpayable","type":"function"},{"inputs":[{"internalType":"uint256","name":"","type":"uint256"}],"name":"ballots","outputs":[{"internalType":"uint256","name":"id","type":"uint256"},{"internalType":"uint256","name":"deadline","type":"uint256"},{"internalType":"uint256","name":"candidatesCount","type":"uint256"}],"stateMutability":"view","type":"function"},{"inputs":[{"internalType":"string[]","name":"_choices","type":"string[]"}],"name":"createBallot","outputs":[],"stateMutability":"nonpayable","type":"function"},{"inputs":[{"internalType":"uint256","name":"ballotId","type":"uint256"}],"name":"getCandidates","outputs":[{"components":[{"internalType":"uint256","name":"id","type":"uint256"},{"internalType":"string","name":"name","type":"string"},{"internalType":"uint256","name":"voteCount","type":"uint256"}],"internalType":"struct Election.Candidate[]","name":"","type":"tuple[]"}],"stateMutability":"view","type":"function"},{"inputs":[{"internalType":"uint256","name":"ballotId","type":"uint256"},{"internalType":"uint256","name":"candidateId","type":"uint256"}],"name":"getVoteTotal","outputs":[{"internalType":"uint256","name":"","type":"uint256"}],"stateMutability":"view","type":"function"},{"inputs":[],"name":"nextBallotId","outputs":[{"internalType":"uint256","name":"","type":"uint256"}],"stateMutability":"view","type":"function"},{"inputs":[{"internalType":"uint256","name":"ballotId","type":"uint256"},{"internalType":"uint256","name":"candidateId","type":"uint256"}],"name":"vote","outputs":[],"stateMutability":"nonpayable","type":"function"}],"bytecode":"608060405234801561001057600080fd5b5061093e806100206000396000f3fe608060405234801561001057600080fd5b506004361061007d5760003560e01c8063836bc6921161005b578063836bc692146100ed578063b384abef14610102578063dc6bfbb514610115578063e23cec7b1461011d5761007d565b80630b736913146100825780633e39a7a5146100ab5780635c632b38146100cb575b600080fd5b610095610090366004610771565b610130565b6040516100a291906108c2565b60405180910390f35b6100be6100b9366004610759565b6101c5565b6040516100a29190610792565b6100de6100d9366004610759565b610309565b6040516100a2939291906108cb565b6101006100fb36600461067b565b610329565b005b610100610110366004610771565b61040a565b6100956104ca565b61010061012b366004610716565b6104d0565b600082600054811061015d5760405162461bcd60e51b81526004016101549061083a565b60405180910390fd5b600084815260016020526040902060030154831061018d5760405162461bcd60e51b815260040161015490610868565b60008481526001602052604090206002018054849081106101aa57fe5b90600052602060002090600302016002015491505092915050565b60608160005481106101e95760405162461bcd60e51b81526004016101549061083a565b600083815260016020908152604080832060020180548251818502810185019093528083529193909284015b828210156102fd578382906000526020600020906003020160405180606001604052908160008201548152602001600182018054600181600116156101000203166002900480601f0160208091040260200160405190810160405280929190818152602001828054600181600116156101000203166002900480156102db5780601f106102b0576101008083540402835291602001916102db565b820191906000526020600020905b8154815290600101906020018083116102be57829003601f168201915b5050505050815260200160028201548152505081526020019060010190610215565b50505050915050919050565b600160208190526000918252604090912080549181015460039091015483565b6000805480825260016020819052604083209182556201518042019101555b81518110156103e7576001600080548152602001908152602001600020600201604051806060016040528083815260200184848151811061038557fe5b60209081029190910181015182526000918101829052835460018181018655948352918190208351600390930201918255828101518051939492936103d193850192919091019061057f565b5060409190910151600290910155600101610348565b505160008054815260016020819052604082206003019290925580549091019055565b81600054811061042c5760405162461bcd60e51b81526004016101549061083a565b82426001600083815260200190815260200160002060010154116104625760405162461bcd60e51b815260040161015490610898565b600084815260016020526040902060020180548490811061047f57fe5b600091825260208220600260039092020101805460010190556040518491869133917fafd3f234c1f8e944129b26b206d98e5752ad3336a4059938b4a3e990e958853091a450505050565b60005481565b8060005481106104f25760405162461bcd60e51b81526004016101549061083a565b6000828152600160208181526040808420815160608101835260038083015482528185018a81529382018790526002909201805480870182559087529584902081519690920290910194855590518051919493610555939085019291019061057f565b50604091820151600290910155600092835260016020819052922060030180549092019091555050565b828054600181600116156101000203166002900490600052602060002090601f016020900481019282601f106105c057805160ff19168380011785556105ed565b828001600101855582156105ed579182015b828111156105ed5782518255916020019190600101906105d2565b506105f99291506105fd565b5090565b5b808211156105f957600081556001016105fe565b600082601f830112610622578081fd5b813567ffffffffffffffff811115610638578182fd5b61064b601f8201601f19166020016108e1565b915080825283602082850101111561066257600080fd5b8060208401602084013760009082016020015292915050565b6000602080838503121561068d578182fd5b823567ffffffffffffffff808211156106a4578384fd5b818501915085601f8301126106b7578384fd5b8135818111156106c5578485fd5b6106d284858302016108e1565b8181528481019250838501865b83811015610708576106f68a888435890101610612565b855293860193908601906001016106df565b509098975050505050505050565b60008060408385031215610728578081fd5b823567ffffffffffffffff81111561073e578182fd5b61074a85828601610612565b95602094909401359450505050565b60006020828403121561076a578081fd5b5035919050565b60008060408385031215610783578182fd5b50508035926020909101359150565b60208082528251828201819052600091906040908185019080840286018301878501865b8381101561070857603f19898403018552815160608151855288820151818a870152805180838801528b92505b80831015610801578183018b015187840160800152918a01916107e3565b80831115610812578b608082890101525b92890151868a0152505094870194601f01601f191690920160800191908601906001016107b6565b60208082526014908201527310985b1b1bdd08191bd95cdb89dd08195e1a5cdd60621b604082015260600190565b60208082526016908201527510d85b991a59185d1948191bd95cdb9d08195e1a5cdd60521b604082015260600190565b60208082526010908201526f159bdd1a5b99c81a185cc8195b99195960821b604082015260600190565b90815260200190565b9283526020830191909152604082015260600190565b60405181810167ffffffffffffffff8111828210171561090057600080fd5b60405291905056fea264697066735822122049849816495dc35dec9b435f768f6fb4cd8bbe427ff0e1e0fe8986c2f06014ed64736f6c634300060c0033","bytecodeSha1":"b2a4429fdf15a7c82dfffd0f9660ed45c0632363","compiler":{"evm_version":"istanbul","optimizer":{"enabled":true,"runs":200},"version":"0.6.12+commit.27d51765"},"contractName":"Election","language":"Solidity","natspec":{"kind":"dev","methods":{},"version":1},"opcodes":"PUSH1 0x80 PUSH1 0x40 MSTORE CALLVALUE DUP1 ISZERO PUSH2 0x10 JUMPI PUSH1 0x0 DUP1 REVERT JUMPDEST POP PUSH1 0x4 CALLDATASIZE LT PUSH2 0x7D JUMPI PUSH1 0x0 CALLDATALOAD PUSH1 0xE0 SHR DUP1 PUSH4 0x836BC692 GT PUSH2 0x5B JUMPI DUP1 PUSH4 0x836BC692 EQ PUSH2 0xED JUMPI DUP1 PUSH4 0xB384ABEF EQ PUSH2 0x102 JUMPI DUP1 PUSH4 0xDC6BFBB5 EQ PUSH2 0x115 JUMPI DUP1 PUSH4 0xE23CEC7B EQ PUSH2 0x11D JUMPI PUSH2 0x7D JUMP JUMPDEST DUP1 PUSH4 0xB736913 EQ PUSH2 0x82 JUMPI DUP1 PUSH4 0x3E39A7A5 EQ PUSH2 0xAB JUMPI DUP1 PUSH4 0x5C632B38 EQ PUSH2 0xCB JUMPI JUMPDEST PUSH1 0x0 DUP1 REVERT JUMPDEST PUSH2 0x95 PUSH2 0x90 CALLDATASIZE PUSH1 0x4 PUSH2 0x771 JUMP JUMPDEST PUSH2 0x130 JUMP JUMPDEST PUSH1 0x40 MLOAD PUSH2 0xA2 SWAP2 SWAP1 PUSH2 0x8C2 JUMP JUMPDEST PUSH1 0x40 MLOAD DUP1 SWAP2 SUB SWAP1 RETURN JUMPDEST PUSH2 0xBE PUSH2 0xB9 CALLDATASIZE PUSH1 0x4 PUSH2 0x759 JUMP JUMPDEST PUSH2 0x1C5 JUMP JUMPDEST PUSH1 0x40 MLOAD PUSH2 0xA2 SWAP2 SWAP1 PUSH2 0x792 JUMP JUMPDEST PUSH2 0xDE PUSH2 0xD9 CALLDATASIZE PUSH1 0x4 PUSH2 0x759 JUMP JUMPDEST PUSH2 0x309 JUMP JUMPDEST PUSH1 0x40 MLOAD PUSH2 0xA2 SWAP4 SWAP3 SWAP2 SWAP1 PUSH2 0x8CB JUMP JUMPDEST PUSH2 0x100 PUSH2 0xFB CALLDATASIZE PUSH1 0x4 PUSH2 0x67B JUMP JUMPDEST PUSH2 0x329 JUMP JUMPDEST STOP JUMPDEST PUSH2 0x100 PUSH2 0x110 CALLDATASIZE PUSH1 0x4 PUSH2 0x771 JUMP JUMPDEST PUSH2 0x40A JUMP JUMPDEST PUSH2 0x95 PUSH2 0x4CA JUMP JUMPDEST PUSH2 0x100 PUSH2 0x12B CALLDATASIZE PUSH1 0x4 PUSH2 0x716 JUMP JUMPDEST PUSH2 0x4D0 JUMP JUMPDEST PUSH1 0x0 DUP3 PUSH1 0x0 SLOAD DUP2 LT PUSH2 0x15D JUMPI PUSH1 0x40 MLOAD PUSH3 0x461BCD PUSH1 0xE5 SHL DUP2 MSTORE PUSH1 0x4 ADD PUSH2 0x154 SWAP1 PUSH2 0x83A JUMP JUMPDEST PUSH1 0x40 MLOAD DUP1 SWAP2 SUB SWAP1 REVERT JUMPDEST PUSH1 0x0 DUP5 DUP2 MSTORE PUSH1 0x1 PUSH1 0x20 MSTORE PUSH1 0x40 SWAP1 KECCAK256 PUSH1 0x3 ADD SLOAD DUP4 LT PUSH2 0x18D JUMPI PUSH1 0x40 MLOAD PUSH3 0x461BCD PUSH1 0xE5 SHL DUP2 MSTORE PUSH1 0x4 ADD PUSH2 0x154 SWAP1 PUSH2 0x868 JUMP JUMPDEST PUSH1 0x0 DUP5 DUP2 MSTORE PUSH1 0x1 PUSH1 0x20 MSTORE PUSH1 0x40 SWAP1 KECCAK256 PUSH1 0x2 ADD DUP1 SLOAD DUP5 SWAP1 DUP2 LT PUSH2 0x1AA JUMPI INVALID JUMPDEST SWAP1 PUSH1 0x0 MSTORE PUSH1 0x20 PUSH1 0x0 KECCAK256 SWAP1 PUSH1 0x3 MUL ADD PUSH1 0x2 ADD SLOAD SWAP2 POP POP SWAP3 SWAP2 POP POP JUMP JUMPDEST PUSH1 0x60 DUP2 PUSH1 0x0 SLOAD DUP2 LT PUSH2 0x1E9 JUMPI PUSH1 0x40 MLOAD PUSH3 0x461BCD PUSH1 0xE5 SHL DUP2 MSTORE PUSH1 0x4 ADD PUSH2 0x154 SWAP1 PUSH2 0x83A JUMP JUMPDEST PUSH1 0x0 DUP4 DUP2 MSTORE PUSH1 0x1 PUSH1 0x20 SWAP1 DUP2 MSTORE PUSH1 0x40 DUP1 DUP4 KECCAK256 PUSH1 0x2 ADD DUP1 SLOAD DUP3 MLOAD DUP2 DUP6 MUL DUP2 ADD DUP6 ADD SWAP1 SWAP4 MSTORE DUP1 DUP4 MSTORE SWAP2 SWAP4 SWAP1 SWAP3 DUP5 ADD JUMPDEST DUP3 DUP3 LT ISZERO PUSH2 0x2FD JUMPI DUP4 DUP3 SWAP1 PUSH1 0x0 MSTORE PUSH1 0x20 PUSH1 0x0 KECCAK256 SWAP1 PUSH1 0x3 MUL ADD PUSH1 0x40 MLOAD DUP1 PUSH1 0x60 ADD PUSH1 0x40 MSTORE SWAP1 DUP2 PUSH1 0x0 DUP3 ADD SLOAD DUP2 MSTORE PUSH1 0x20 ADD PUSH1 0x1 DUP3 ADD DUP1 SLOAD PUSH1 0x1 DUP2 PUSH1 0x1 AND ISZERO PUSH2 0x100 MUL SUB AND PUSH1 0x2 SWAP1 DIV DUP1 PUSH1 0x1F ADD PUSH1 0x20 DUP1 SWAP2 DIV MUL PUSH1 0x20 ADD PUSH1 0x40 MLOAD SWAP1 DUP2 ADD PUSH1 0x40 MSTORE DUP1 SWAP3 SWAP2 SWAP1 DUP2 DUP2 MSTORE PUSH1 0x20 ADD DUP3 DUP1 SLOAD PUSH1 0x1 DUP2 PUSH1 0x1 AND ISZERO PUSH2 0x100 MUL SUB AND PUSH1 0x2 SWAP1 DIV DUP1 ISZERO PUSH2 0x2DB JUMPI DUP1 PUSH1 0x1F LT PUSH2 0x2B0 JUMPI PUSH2 0x100 DUP1 DUP4 SLOAD DIV MUL DUP4 MSTORE SWAP2 PUSH1 0x20 ADD SWAP2 PUSH2 0x2DB JUMP JUMPDEST DUP3 ADD SWAP2 SWAP1 PUSH1 0x0 MSTORE PUSH1 0x20 PUSH1 0x0 KECCAK256 SWAP1 JUMPDEST DUP2 SLOAD DUP2 MSTORE SWAP1 PUSH1 0x1 ADD SWAP1 PUSH1 0x20 ADD DUP1 DUP4 GT PUSH2 0x2BE JUMPI DUP3 SWAP1 SUB PUSH1 0x1F AND DUP3 ADD SWAP2 JUMPDEST POP POP POP POP POP DUP2 MSTORE PUSH1 0x20 ADD PUSH1 0x2 DUP3 ADD SLOAD DUP2 MSTORE POP POP DUP2 MSTORE PUSH1 0x20 ADD SWAP1 PUSH1 0x1 ADD SWAP1 PUSH2 0x215 JUMP JUMPDEST POP POP POP POP SWAP2 POP POP SWAP2 SWAP1 POP JUMP JUMPDEST PUSH1 0x1 PUSH1 0x20 DUP2 SWAP1 MSTORE PUSH1 0x0 SWAP2 DUP3 MSTORE PUSH1 0x40 SWAP1 SWAP2 KECCAK256 DUP1 SLOAD SWAP2 DUP2 ADD SLOAD PUSH1 0x3 SWAP1 SWAP2 ADD SLOAD DUP4 JUMP JUMPDEST PUSH1 0x0 DUP1 SLOAD DUP1 DUP3 MSTORE PUSH1 0x1 PUSH1 0x20 DUP2 SWAP1 MSTORE PUSH1 0x40 DUP4 KECCAK256 SWAP2 DUP3 SSTORE PUSH3 0x15180 TIMESTAMP ADD SWAP2 ADD SSTORE JUMPDEST DUP2 MLOAD DUP2 LT ISZERO PUSH2 0x3E7 JUMPI PUSH1 0x1 PUSH1 0x0 DUP1 SLOAD DUP2 MSTORE PUSH1 0x20 ADD SWAP1 DUP2 MSTORE PUSH1 0x20 ADD PUSH1 0x0 KECCAK256 PUSH1 0x2 ADD PUSH1 0x40 MLOAD DUP1 PUSH1 0x60 ADD PUSH1 0x40 MSTORE DUP1 DUP4 DUP2 MSTORE PUSH1 0x20 ADD DUP5 DUP5 DUP2 MLOAD DUP2 LT PUSH2 0x385 JUMPI INVALID JUMPDEST PUSH1 0x20 SWAP1 DUP2 MUL SWAP2 SWAP1 SWAP2 ADD DUP2 ADD MLOAD DUP3 MSTORE PUSH1 0x0 SWAP2 DUP2 ADD DUP3 SWAP1 MSTORE DUP4 SLOAD PUSH1 0x1 DUP2 DUP2 ADD DUP7 SSTORE SWAP5 DUP4 MSTORE SWAP2 DUP2 SWAP1 KECCAK256 DUP4 MLOAD PUSH1 0x3 SWAP1 SWAP4 MUL ADD SWAP2 DUP3 SSTORE DUP3 DUP2 ADD MLOAD DUP1 MLOAD SWAP4 SWAP5 SWAP3 SWAP4 PUSH2 0x3D1 SWAP4 DUP6 ADD SWAP3 SWAP2 SWAP1 SWAP2 ADD SWAP1 PUSH2 0x57F JUMP JUMPDEST POP PUSH1 0x40 SWAP2 SWAP1 SWAP2 ADD MLOAD PUSH1 0x2 SWAP1 SWAP2 ADD SSTORE PUSH1 0x1 ADD PUSH2 0x348 JUMP JUMPDEST POP MLOAD PUSH1 0x0 DUP1 SLOAD DUP2 MSTORE PUSH1 0x1 PUSH1 0x20 DUP2 SWAP1 MSTORE PUSH1 0x40 DUP3 KECCAK256 PUSH1 0x3 ADD SWAP3 SWAP1 SWAP3 SSTORE DUP1 SLOAD SWAP1 SWAP2 ADD SWAP1 SSTORE JUMP JUMPDEST DUP2 PUSH1 0x0 SLOAD DUP2 LT PUSH2 0x42C JUMPI PUSH1 0x40 MLOAD PUSH3 0x461BCD PUSH1 0xE5 SHL DUP2 MSTORE PUSH1 0x4 ADD PUSH2 0x154 SWAP1 PUSH2 0x83A JUMP JUMPDEST DUP3 TIMESTAMP PUSH1 0x1 PUSH1 0x0 DUP4 DUP2 MSTORE PUSH1 0x20 ADD SWAP1 DUP2 MSTORE PUSH1 0x20 ADD PUSH1 0x0 KECCAK256 PUSH1 0x1 ADD SLOAD GT PUSH2 0x462 JUMPI PUSH1 0x40 MLOAD PUSH3 0x461BCD PUSH1 0xE5 SHL DUP2 MSTORE PUSH1 0x4 ADD PUSH2 0x154 SWAP1 PUSH2 0x898 JUMP JUMPDEST PUSH1 0x0 DUP5 DUP2 MSTORE PUSH1 0x1 PUSH1 0x20 MSTORE PUSH1 0x40 SWAP1 KECCAK256 PUSH1 0x2 ADD DUP1 SLOAD DUP5 SWAP1 DUP2 LT PUSH2 0x47F JUMPI INVALID JUMPDEST PUSH1 0x0 SWAP2 DUP3 MSTORE PUSH1 0x20 DUP3 KECCAK256 PUSH1 0x2 PUSH1 0x3 SWAP1 SWAP3 MUL ADD ADD DUP1 SLOAD PUSH1 0x1 ADD SWAP1 SSTORE PUSH1 0x40 MLOAD DUP5 SWAP2 DUP7 SWAP2 CALLER SWAP2 PUSH32 0xAFD3F234C1F8E944129B26B206D98E5752AD3336A4059938B4A3E990E9588530 SWAP2 LOG4 POP POP POP POP JUMP JUMPDEST PUSH1 0x0 SLOAD DUP2 JUMP JUMPDEST DUP1 PUSH1 0x0 SLOAD DUP2 LT PUSH2 0x4F2 JUMPI PUSH1 0x40 MLOAD PUSH3 0x461BCD PUSH1 0xE5 SHL DUP2 MSTORE PUSH1 0x4 ADD PUSH2 0x154 SWAP1 PUSH2 0x83A JUMP JUMPDEST PUSH1 0x0 DUP3 DUP2 MSTORE PUSH1 0x1 PUSH1 0x20 DUP2 DUP2 MSTORE PUSH1 0x40 DUP1 DUP5 KECCAK256 DUP2 MLOAD PUSH1 0x60 DUP2 ADD DUP4 MSTORE PUSH1 0x3 DUP1 DUP4 ADD SLOAD DUP3 MSTORE DUP2 DUP6 ADD DUP11 DUP2 MSTORE SWAP4 DUP3 ADD DUP8 SWAP1 MSTORE PUSH1 0x2 SWAP1 SWAP3 ADD DUP1 SLOAD DUP1 DUP8 ADD DUP3 SSTORE SWAP1 DUP8 MSTORE SWAP6 DUP5 SWAP1 KECCAK256 DUP2 MLOAD SWAP7 SWAP1 SWAP3 MUL SWAP1 SWAP2 ADD SWAP5 DUP6 SSTORE SWAP1 MLOAD DUP1 MLOAD SWAP2 SWAP5 SWAP4 PUSH2 0x555 SWAP4 SWAP1 DUP6 ADD SWAP3 SWAP2 ADD SWAP1 PUSH2 0x57F JUMP JUMPDEST POP PUSH1 0x40 SWAP2 DUP3 ADD MLOAD PUSH1 0x2 SWAP1 SWAP2 ADD SSTORE PUSH1 0x0 SWAP3 DUP4 MSTORE PUSH1 0x1 PUSH1 0x20 DUP2 SWAP1 MSTORE SWAP3 KECCAK256 PUSH1 0x3 ADD DUP1 SLOAD SWAP1 SWAP3 ADD SWAP1 SWAP2 SSTORE POP POP JUMP JUMPDEST DUP3 DUP1 SLOAD PUSH1 0x1 DUP2 PUSH1 0x1 AND ISZERO PUSH2 0x100 MUL SUB AND PUSH1 0x2 SWAP1 DIV SWAP1 PUSH1 0x0 MSTORE PUSH1 0x20 PUSH1 0x0 KECCAK256 SWAP1 PUSH1 0x1F ADD PUSH1 0x20 SWAP1 DIV DUP2 ADD SWAP3 DUP3 PUSH1 0x1F LT PUSH2 0x5C0 JUMPI DUP1 MLOAD PUSH1 0xFF NOT AND DUP4 DUP1 ADD OR DUP6 SSTORE PUSH2 0x5ED JUMP JUMPDEST DUP3 DUP1 ADD PUSH1 0x1 ADD DUP6 SSTORE DUP3 ISZERO PUSH2 0x5ED JUMPI SWAP2 DUP3 ADD JUMPDEST DUP3 DUP2 GT ISZERO PUSH2 0x5ED JUMPI DUP3 MLOAD DUP3 SSTORE SWAP2 PUSH1 0x20 ADD SWAP2 SWAP1 PUSH1 0x1 ADD SWAP1 PUSH2 0x5D2 JUMP JUMPDEST POP PUSH2 0x5F9 SWAP3 SWAP2 POP PUSH2 0x5FD JUMP JUMPDEST POP SWAP1 JUMP JUMPDEST JUMPDEST DUP1 DUP3 GT ISZERO PUSH2 0x5F9 JUMPI PUSH1 0x0 DUP2 SSTORE PUSH1 0x1 ADD PUSH2 0x5FE JUMP JUMPDEST PUSH1 0x0 DUP3 PUSH1 0x1F DUP4 ADD SLT PUSH2 0x622 JUMPI DUP1 DUP2 REVERT JUMPDEST DUP2 CALLDATALOAD PUSH8 0xFFFFFFFFFFFFFFFF DUP2 GT ISZERO PUSH2 0x638 JUMPI DUP2 DUP3 REVERT JUMPDEST PUSH2 0x64B PUSH1 0x1F DUP3 ADD PUSH1 0x1F NOT AND PUSH1 0x20 ADD PUSH2 0x8E1 JUMP JUMPDEST SWAP2 POP DUP1 DUP3 MSTORE DUP4 PUSH1 0x20 DUP3 DUP6 ADD ADD GT ISZERO PUSH2 0x662 JUMPI PUSH1 0x0 DUP1 REVERT JUMPDEST DUP1 PUSH1 0x20 DUP5 ADD PUSH1 0x20 DUP5 ADD CALLDATACOPY PUSH1 0x0 SWAP1 DUP3 ADD PUSH1 0x20 ADD MSTORE SWAP3 SWAP2 POP POP JUMP JUMPDEST PUSH1 0x0 PUSH1 0x20 DUP1 DUP4 DUP6 SUB SLT ISZERO PUSH2 0x68D JUMPI DUP2 DUP3 REVERT JUMPDEST DUP3 CALLDATALOAD PUSH8 0xFFFFFFFFFFFFFFFF DUP1 DUP3 GT ISZERO PUSH2 0x6A4 JUMPI DUP4 DUP5 REVERT JUMPDEST DUP2 DUP6 ADD SWAP2 POP DUP6 PUSH1 0x1F DUP4 ADD SLT PUSH2 0x6B7 JUMPI DUP4 DUP5 REVERT JUMPDEST DUP2 CALLDATALOAD DUP2 DUP2 GT ISZERO PUSH2 0x6C5 JUMPI DUP5 DUP6 REVERT JUMPDEST PUSH2 0x6D2 DUP5 DUP6 DUP4 MUL ADD PUSH2 0x8E1 JUMP JUMPDEST DUP2 DUP2 MSTORE DUP5 DUP2 ADD SWAP3 POP DUP4 DUP6 ADD DUP7 JUMPDEST DUP4 DUP2 LT ISZERO PUSH2 0x708 JUMPI PUSH2 0x6F6 DUP11 DUP9 DUP5 CALLDATALOAD DUP10 ADD ADD PUSH2 0x612 JUMP JUMPDEST DUP6 MSTORE SWAP4 DUP7 ADD SWAP4 SWAP1 DUP7 ADD SWAP1 PUSH1 0x1 ADD PUSH2 0x6DF JUMP JUMPDEST POP SWAP1 SWAP9 SWAP8 POP POP POP POP POP POP POP POP JUMP JUMPDEST PUSH1 0x0 DUP1 PUSH1 0x40 DUP4 DUP6 SUB SLT ISZERO PUSH2 0x728 JUMPI DUP1 DUP2 REVERT JUMPDEST DUP3 CALLDATALOAD PUSH8 0xFFFFFFFFFFFFFFFF DUP2 GT ISZERO PUSH2 0x73E JUMPI DUP2 DUP3 REVERT JUMPDEST PUSH2 0x74A DUP6 DUP3 DUP7 ADD PUSH2 0x612 JUMP JUMPDEST SWAP6 PUSH1 0x20 SWAP5 SWAP1 SWAP5 ADD CALLDATALOAD SWAP5 POP POP POP POP JUMP JUMPDEST PUSH1 0x0 PUSH1 0x20 DUP3 DUP5 SUB SLT ISZERO PUSH2 0x76A JUMPI DUP1 DUP2 REVERT JUMPDEST POP CALLDATALOAD SWAP2 SWAP1 POP JUMP JUMPDEST PUSH1 0x0 DUP1 PUSH1 0x40 DUP4 DUP6 SUB SLT ISZERO PUSH2 0x783 JUMPI DUP2 DUP3 REVERT JUMPDEST POP POP DUP1 CALLDATALOAD SWAP3 PUSH1 0x20 SWAP1 SWAP2 ADD CALLDATALOAD SWAP2 POP JUMP JUMPDEST PUSH1 0x20 DUP1 DUP3 MSTORE DUP3 MLOAD DUP3 DUP3 ADD DUP2 SWAP1 MSTORE PUSH1 0x0 SWAP2 SWAP1 PUSH1 0x40 SWAP1 DUP2 DUP6 ADD SWAP1 DUP1 DUP5 MUL DUP7 ADD DUP4 ADD DUP8 DUP6 ADD DUP7 JUMPDEST DUP4 DUP2 LT ISZERO PUSH2 0x708 JUMPI PUSH1 0x3F NOT DUP10 DUP5 SUB ADD DUP6 MSTORE DUP2 MLOAD PUSH1 0x60 DUP2 MLOAD DUP6 MSTORE DUP9 DUP3 ADD MLOAD DUP2 DUP11 DUP8 ADD MSTORE DUP1 MLOAD DUP1 DUP4 DUP9 ADD MSTORE DUP12 SWAP3 POP JUMPDEST DUP1 DUP4 LT ISZERO PUSH2 0x801 JUMPI DUP2 DUP4 ADD DUP12 ADD MLOAD DUP8 DUP5 ADD PUSH1 0x80 ADD MSTORE SWAP2 DUP11 ADD SWAP2 PUSH2 0x7E3 JUMP JUMPDEST DUP1 DUP4 GT ISZERO PUSH2 0x812 JUMPI DUP12 PUSH1 0x80 DUP3 DUP10 ADD ADD MSTORE JUMPDEST SWAP3 DUP10 ADD MLOAD DUP7 DUP11 ADD MSTORE POP POP SWAP5 DUP8 ADD SWAP5 PUSH1 0x1F ADD PUSH1 0x1F NOT AND SWAP1 SWAP3 ADD PUSH1 0x80 ADD SWAP2 SWAP1 DUP7 ADD SWAP1 PUSH1 0x1 ADD PUSH2 0x7B6 JUMP JUMPDEST PUSH1 0x20 DUP1 DUP3 MSTORE PUSH1 0x14 SWAP1 DUP3 ADD MSTORE PUSH20 0x10985B1B1BDD08191BD95CDB89DD08195E1A5CDD PUSH1 0x62 SHL PUSH1 0x40 DUP3 ADD MSTORE PUSH1 0x60 ADD SWAP1 JUMP JUMPDEST PUSH1 0x20 DUP1 DUP3 MSTORE PUSH1 0x16 SWAP1 DUP3 ADD MSTORE PUSH22 0x10D85B991A59185D1948191BD95CDB9D08195E1A5CDD PUSH1 0x52 SHL PUSH1 0x40 DUP3 ADD MSTORE PUSH1 0x60 ADD SWAP1 JUMP JUMPDEST PUSH1 0x20 DUP1 DUP3 MSTORE PUSH1 0x10 SWAP1 DUP3 ADD MSTORE PUSH16 0x159BDD1A5B99C81A185CC8195B991959 PUSH1 0x82 SHL PUSH1 0x40 DUP3 ADD MSTORE PUSH1 0x60 ADD SWAP1 JUMP JUMPDEST SWAP1 DUP2 MSTORE PUSH1 0x20 ADD SWAP1 JUMP JUMPDEST SWAP3 DUP4 MSTORE PUSH1 0x20 DUP4 ADD SWAP2 SWAP1 SWAP2 MSTORE PUSH1 0x40 DUP3 ADD MSTORE PUSH1 0x60 ADD SWAP1 JUMP JUMPDEST PUSH1 0x40 MLOAD DUP2 DUP2 ADD PUSH8 0xFFFFFFFFFFFFFFFF DUP2 GT DUP3 DUP3 LT OR ISZERO PUSH2 0x900 JUMPI PUSH1 0x0 DUP1 REVERT JUMPDEST PUSH1 0x40 MSTORE SWAP2 SWAP1 POP JUMP INVALID LOG2 PUSH5 0x6970667358 0x22 SLT KECCAK256 0x49 DUP5 SWAP9 AND 0x49 0x5D 0xC3 0x5D 0xEC SWAP12 NUMBER 0x5F PUSH23 0x8F6FB4CD8BBE427FF0E1E0FE8986C2F06014ED64736F6C PUSH4 0x4300060C STOP CALLER ","sha1":"9d7abcbc0f50d6950932b0fe780d07f0a09e4404","source":"pragma solidity ^0.6.4;\npragma experimental ABIEncoderV2;\n\ncontract Election {\n    struct Candidate {\n\t    uint id;\n        string name;\n\t    uint voteCount;\n    }\n\n    struct Ballot {\n        uint id;\n        uint deadline;\n        Candidate[] choices;\n        uint candidatesCount;\n    }\n\n    event Vote(address indexed _from, uint indexed _ballotId, uint indexed _candidateId);\n    \n    uint public nextBallotId;\n\n    mapping(uint => Ballot) public ballots;\n\n    function createBallot(string[] memory _choices) public {\n        ballots[nextBallotId].id = nextBallotId;\n        ballots[nextBallotId].deadline = now + 1 days;\n        for(uint i = 0; i < _choices.length; i++) {\n            ballots[nextBallotId].choices.push(Candidate(i, _choices[i], 0));\n        }\n        ballots[nextBallotId].candidatesCount = _choices.length;\n        nextBallotId++;\n    }\n\n    function addCandidate(string memory _name, uint ballotId) public ballotExists(ballotId) {\n        ballots[ballotId].choices.push(Candidate(ballots[ballotId].candidatesCount, _name, 0));\n        ballots[ballotId].candidatesCount++;\n    }\n\n    function vote(uint ballotId, uint candidateId) public ballotExists(ballotId) votingActive(ballotId) {\n\t    ballots[ballotId].choices[candidateId].voteCount++;\n        emit Vote(msg.sender, ballotId, candidateId);\n    }\n\n    function getVoteTotal(uint ballotId, uint candidateId) public view ballotExists(ballotId) returns (uint) {\n        require(candidateId < ballots[ballotId].candidatesCount,\"Candidate doesnt exist\");\n        return ballots[ballotId].choices[candidateId].voteCount;\n    }\n\n    function getCandidates(uint ballotId) public view ballotExists(ballotId) returns(Candidate[] memory) {\n        return ballots[ballotId].choices;\n    }\n\n    modifier ballotExists(uint ballotId) {\n        require(ballotId < nextBallotId, \"Ballot doesn't exist\");\n        _;\n    }\n    \n    modifier votingActive(uint ballotId) {\n        require(ballots[ballotId].deadline > now, \"Voting has ended\");\n        _;\n    }\n\n}\n","sourcePath":"contracts/Election.sol","type":"contract","deployment":{"address":"0xf45244A50c5e463403560EF000033Bfa7F6F5213","chainid":"dev","blockHeight":3}}